:100000000C945D000C9485000C9485000C94850084
:100010000C9485000C9485000C9485000C9485004C
:100020000C9485000C9485000C9485000C9485003C
:100030000C9485000C9485000C9485000C9485002C
:100040000C94EE050C9485000C945E060C94380616
:100050000C9485000C9485000C9485000C9485000C
:100060000C9485000C94850000000008000201003B
:100070000003040700000000000000000000000072
:10008000250028002B0000000000240027002A0083
:10009000040404040404040402020202020203032E
:1000A0000303030301020408102040800102040836
:1000B0001020010204081020960711241FBECFEF64
:1000C000D8E0DEBFCDBF22E0AAE8B1E001C01D92BA
:1000D000A933B207E1F711E0A0E0B1E0EAEFF3E104
:1000E00002C005900D92AA38B107D9F710E0CDE50E
:1000F000D0E004C02197FE010E94FA07CC35D10759
:10010000C9F70E9490060C94FB090C94000090E043
:10011000FC01EC55FF4F249180579F4FFC018491C7
:10012000882399F090E0880F991FFC01EA57FF4F50
:10013000A591B491FC01E458FF4F859194918FB73C
:10014000F894EC91E22BEC938FBF089590E0FC01C2
:10015000E859FF4F2491FC01EC55FF4F3491FC010D
:10016000E057FF4FE491EE23C9F0222339F023300A
:1001700001F1A8F4213019F1223029F1F0E0EE0F5D
:10018000FF1FE458FF4FA591B4918FB7F894EC91FD
:10019000611126C030953E233C938FBF08952730D0
:1001A000A9F02830C9F0243049F7809180008F7D74
:1001B00003C0809180008F7780938000DFCF84B56B
:1001C0008F7784BDDBCF84B58F7DFBCF8091B0006E
:1001D0008F778093B000D2CF8091B0008F7DF9CF20
:1001E0003E2BDACF8E3008F08E508770806480937B
:1001F0007C0080917A00806480937A0080917A00FC
:1002000086FDFCCF809178009091790008953FB7EA
:10021000F8948091940190919501A0919601B091EC
:10022000970126B5A89B05C02F3F19F00196A11D87
:10023000B11D3FBFBA2FA92F982F8827BC01CD0130
:10024000620F711D811D911D42E0660F771F881F8F
:10025000991F4A95D1F708958F929F92AF92BF92BE
:10026000CF92DF92EF92FF924B015C010E94070157
:100270006B017C010E9407016C197D098E099F09A1
:10028000683E734081059105A8F321E0821A910828
:10029000A108B10888EEC80E83E0D81EE11CF11C4D
:1002A00081149104A104B10429F7FF90EF90DF902D
:1002B000CF90BF90AF909F908F900895AF92BF92D4
:1002C000CF92DF92EF92FF920F931F93CF93DF9322
:1002D0006C017B018B01040F151FEB015E01AE1851
:1002E000BF08C017D10759F06991D601ED91FC9173
:1002F0000190F081E02DC6010995892B79F7C501A0
:10030000DF91CF911F910F91FF90EF90DF90CF90F1
:10031000BF90AF900895FC01538D448D252F30E0A0
:10032000842F90E0821B930B541710F0CF96089502
:1003300001970895FC01918D828D981761F0A28D2F
:10034000AE0FBF2FB11D5D968C91928D9F5F9F73F5
:10035000928F90E008958FEF9FEF0895FC01918DAB
:10036000828D981731F0828DE80FF11D858D90E018
:1003700008958FEF9FEF0895FC01918D228D892FB5
:1003800090E0805C9F4F821B91098F73992708959D
:1003900088E991E00E94BC0121E0892B09F420E06A
:1003A000822F089580E090E0892B29F00E94C801F7
:1003B00081110C9400000895FC01A48DA80FB92FA1
:1003C000B11DA35ABF4F2C91848D90E001968F737D
:1003D0009927848FA689B7892C93A089B1898C919C
:1003E000837080648C93938D848D981306C00288EB
:1003F000F389E02D80818F7D80830895EF92FF92B5
:100400000F931F93CF93DF93EC0181E0888F9B8D37
:100410008C8D98131AC0E889F989808185FF15C0F1
:100420009FB7F894EE89FF896083E889F989808114
:100430008370806480839FBF81E090E0DF91CF91E3
:100440001F910F91FF90EF900895F62E0B8D10E005
:100450000F5F1F4F0F731127E02E8C8D8E110CC074
:100460000FB607FCFACFE889F989808185FFF5CFBF
:10047000CE010E94DC01F1CFEB8DEC0FFD2FF11DC1
:10048000E35AFF4FF0829FB7F8940B8FEA89FB89FC
:1004900080818062CFCFCF93DF93EC01888D88235A
:1004A000B9F0AA89BB89E889F9898C9185FD03C0D7
:1004B000808186FD0DC00FB607FCF7CF8C9185FFBC
:1004C000F2CF808185FFEDCFCE010E94DC01E9CF24
:1004D000DF91CF910895CF93DF93EC01682F617086
:1004E00082E00E94A600BE0175956795617083E069
:1004F0000E94A600BE017595679575956795617018
:1005000084E00E94A600BE0123E0759567952A95B8
:10051000E1F785E0DF91CF910C94A6000F931F9334
:10052000CF93DF93082F162FD42FC8E06D2F661FAF
:100530006627661F802F0E94A600DD0F61E0812FD5
:100540000E94A60060E0812F0E94A600C15071F7B2
:10055000DF91CF911F910F910895CF9360E08AE0D2
:100560000E94A600C0918A0140918B0169E088E059
:100570000E948E024C2F69E088E00E948E0261E0AA
:100580008AE0CF910C94A600E0918A01F0918B0152
:10059000882341F1F160F0938B01E0938A0180910F
:1005A0008A0190918B016623F9F0926090938B0100
:1005B00080938A0180918A0190918B014423B1F04C
:1005C000946090938B0180938A0180918A0190912D
:1005D0008B01222369F0986090938B0180938A01AC
:1005E0000C94AD02FE7FD7CF9D7FE0CF9B7FE9CFFC
:1005F000977FF2CF42E050E068E171E088E991E056
:100600000C945E01CF93DF93FC014481558160819E
:10061000718188E991E00E945E01EC010E94FA027A
:100620008C0F9D1FDF91CF910895FC0124813581AE
:10063000232B39F421E0FB018081882349F020E05D
:1006400007C0808191810E94EB0921E0892BB9F7D5
:10065000822F08950F931F93CF93DF93EC0188812E
:100660009981009759F02A813B812617370730F08E
:1006700081E0DF91CF911F910F9108958B016F5F02
:100680007F4F0E942509009759F0998388831B8327
:100690000A832C813D81232B59F7FC011082E8CF7E
:1006A00080E0E7CFCF93DF93EC01888199810097B9
:1006B00011F00E949C08198218821D821C821B82E4
:1006C0001A82DF91CF910895EF92FF920F931F93BB
:1006D000CF93DF93EC01198218821B821A821D824C
:1006E0001C828617970719F1FB0100811181011502
:1006F0001105E9F0E480F580B7010E942A03811119
:1007000009C0CE01DF91CF911F910F91FF90EF9023
:100710000C945203FD82EC82B80188819981DF91AB
:10072000CF911F910F91FF90EF900C94F409DF91FE
:10073000CF911F910F91FF90EF900895EF92FF924C
:100740000F931F93CF93DF938C017B01EB010990F3
:100750000020E9F72197C61BD70BBE010E942A0390
:10076000811109C0C801DF91CF911F910F91FF90B6
:10077000EF900C945203F801D583C483B7018081B4
:100780009181DF91CF911F910F91FF90EF900C9489
:10079000F409EF92FF920F931F93CF93DF938C0195
:1007A0007B01FB0101900020E9F73197E61BF70B75
:1007B000D1F0DC011496CD91DC91CE0FDF1FBE018C
:1007C0000E942A038823B9F0F801208131818481B5
:1007D0009581B701820F931F0E94F409D8011596E5
:1007E000DC93CE931497C801DF91CF911F910F91A5
:1007F000FF90EF900895C8010E945203F4CFFC01CE
:1008000080819181009711F00C949C0808952F929B
:100810003F924F925F926F927F928F929F92AF9290
:10082000BF92CF92DF92EF92FF920F931F93CF93DD
:10083000DF9300D000D000D0CDB7DEB77C013B0104
:10084000342E222E0E946B0265E070E080E090E082
:100850000E942C018EE00E94F2004C0157012FEF04
:10086000A21AB20AC5010E946B0265E070E080E046
:1008700090E00E942C018EE00E94F2002C016701A2
:1008800032E0C30ED11CC6010E946B0265E070E02D
:1008900080E090E00E942C018EE00E94F20021E0B6
:1008A00030E045EF841641E0940614F430E020E097
:1008B00088248394912C55E64516510414F4912C08
:1008C000812C820E931E21E030E0853F914014F48C
:1008D00030E020E0820E931EF3018081B801811187
:1008E000F4C0CE010196F2E08F1691040CF4BAC068
:1008F0000E9464036BE171E0CE0101960E94C9037E
:100900000E940203CE0101960E94FF0368EC70E092
:1009100080E090E00E942C01C7010E946B028EE0F3
:100920000E94F2007C01C5010E946B028EE00E94D1
:10093000F2005C01C6010E946B028EE00E94F20090
:1009400021E030E045EFE41641E0F40614F430E035
:1009500020E041E050E065E6A616B10414F450E052
:1009600040E0240F351F41E050E0853F914014F4F2
:1009700050E040E0240F351F223031050CF459C0FF
:10098000B801CE0101960E9464036EE271E0CE01CF
:1009900001960E94C9030E940203CE0101960E94A3
:1009A000FF0381E0F301808381E090E0A0E0B0E00C
:1009B000AC01BD0104C0440F551F661F771F3A9458
:1009C000D2F720918A0130918B01242B352B04C062
:1009D000880F991FAA1FBB1F2A94D2F78095909564
:1009E0008223932390938B0180938A016EE371E0BD
:1009F000C8010E941503882331F021E040E060E047
:100A000081E00E94C40265E471E0C8010E94150300
:100A1000882331F021E040E061E080E00E94C402E0
:100A20006CE471E0C8010E94150321E041E08111EE
:100A3000D0C026960FB6F894DEBF0FBECDBFDF91B3
:100A4000CF911F910F91FF90EF90DF90CF90BF90CB
:100A5000AF909F908F907F906F905F904F903F905E
:100A60002F9008950E94640363E571E0CE01019622
:100A70000E94C9030E940203CE0101960E94FF0357
:100A800041E050E060E070E0DB01CA0104C0880F83
:100A9000991FAA1FBB1F3A94D2F780959095209179
:100AA0008A0130918B012823392304C0440F551F3C
:100AB000661F771F2A94D2F7242B352B30938B0196
:100AC00020938A010E94AD02B4CFCE0101960E940C
:100AD00064036BE571E0CE0101960E94C9030E9498
:100AE0000203CE0101960E94FF0381E090E0A0E0A6
:100AF000B0E06C017D0104C0CC0CDD1CEE1CFF1CC1
:100B00003A94D2F79C01AD0104C0220F331F441F59
:100B1000551F2A94D2F7190180918A0190918B0177
:100B20008C299D29209530958223932390938B01C6
:100B300080938A016EE371E0C8010E941503882347
:100B400031F021E040E060E081E00E94C40265E411
:100B500071E0C8010E941503882331F021E040E0D4
:100B600061E080E00E94C4026CE471E0C8010E9470
:100B70001503882331F021E041E060E080E00E942D
:100B8000C40232E0831691040CF053CFB801CE01B9
:100B900001960E94640368E671E0CE0101960E940E
:100BA000C9030E940203CE0101960E94FF03F301D4
:100BB0001082C094D09480918A0190918B01C822B8
:100BC000D922C228D328D0928B01C0928A0120E07A
:100BD00040E060E080E00E94C4022BCF1F920F92A1
:100BE0000FB60F9211242F933F938F939F93AF9340
:100BF000BF938091900190919101A0919201B09149
:100C0000930130918F0123E0230F2D3758F5019682
:100C1000A11DB11D20938F018093900190939101AC
:100C2000A0939201B09393018091940190919501CA
:100C3000A0919601B09197010196A11DB11D8093DD
:100C4000940190939501A0939601B0939701BF9161
:100C5000AF919F918F913F912F910F900FBE0F9069
:100C60001F90189526E8230F0296A11DB11DD2CF23
:100C70001F920F920FB60F9211242F933F934F9311
:100C80005F936F937F938F939F93AF93BF93EF93F4
:100C9000FF9388E991E00E94DC01FF91EF91BF9101
:100CA000AF919F918F917F916F915F914F913F9104
:100CB0002F910F900FBE0F901F9018951F920F92BB
:100CC0000FB60F9211242F938F939F93EF93FF935F
:100CD000E091A801F091A9018081E091AE01F0912D
:100CE000AF0182FD1BC090818091B1018F5F8F7336
:100CF0002091B201821741F0E091B101F0E0E85695
:100D0000FE4F958F8093B101FF91EF919F918F914D
:100D10002F910F900FBE0F901F9018958081F4CFE8
:100D2000CF93DF9300D000D000D0CDB7DEB778945A
:100D300084B5826084BD84B5816084BD85B58260E0
:100D400085BD85B5816085BD80916E008160809391
:100D50006E001092810080918100826080938100FA
:100D6000809181008160809381008091800081600A
:100D7000809380008091B10084608093B100809165
:100D8000B00081608093B00080917A00846080938D
:100D90007A0080917A00826080937A0080917A0054
:100DA000816080937A0080917A00806880937A00D5
:100DB0001092C10082E00E94870083E00E948700B9
:100DC00084E00E94870085E00E94870088E00E94FE
:100DD000870089E00E9487008AE00E948700E091F6
:100DE000A801F091A90182E08083E091A401F09133
:100DF000A5011082E091A601F091A7018FEC8083FC
:100E00001092B001E091AC01F091AD0186E08083D9
:100E1000E091AA01F091AB01808180618083E09133
:100E2000AA01F091AB01808188608083E091AA01E2
:100E3000F091AB01808180688083E091AA01F091FC
:100E4000AB0180818F7D808310928B0110928A018B
:100E50000E94AD0280E0E82E80E0F82E1A8219820E
:100E60001C821B821E821D826EE371E0CE01019600
:100E70000E949E038E010F5F1F4F21E030E050E083
:100E800040E06EE871E090E080E00E940704C80155
:100E90000E94FF031A8219821C821B821E821D82FD
:100EA00065E471E0C8010E949E0323E030E042E067
:100EB00050E06DE871E083E090E00E940704C80113
:100EC0000E94FF031A8219821C821B821E821D82CD
:100ED0006CE471E0C8010E949E0325E030E044E02C
:100EE00050E06CE871E086E090E00E940704C801E1
:100EF0000E94FF0343E150E066E771E088E991E07A
:100F00000E945E010E94FA0264E670E080E090E0D8
:100F10000E942C01E114F10409F4A0CF0E94C80141
:100F2000882309F49BCF0E94000098CFE8E9F1E004
:100F30001382128288EE93E0A0E0B0E08483958370
:100F4000A683B7838AE091E09183808385EC90E06B
:100F50009587848784EC90E09787868780EC90E083
:100F6000918B808B81EC90E0938B828B82EC90E074
:100F7000958B848B86EC90E0978B868B118E128EEE
:100F8000138E148E08952F923F924F925F926F921C
:100F90007F928F929F92AF92BF92CF92DF92EF9209
:100FA000FF920F931F93CF93DF93CDB7DEB7CA1B8A
:100FB000DB0B0FB6F894DEBF0FBECDBF09942A88B5
:100FC000398848885F846E847D848C849B84AA845D
:100FD000B984C884DF80EE80FD800C811B81AA81EA
:100FE000B981CE0FD11D0FB6F894DEBF0FBECDBFB5
:100FF000ED010895EE0FFF1F0590F491E02D099487
:101000000F931F93CF93DF938230910510F482E00A
:1010100090E0E0913702F091380230E020E0B0E05B
:10102000A0E0309799F42115310509F44AC0281B36
:10103000390B24303105D8F58A819B816115710502
:1010400089F1FB0193838283FE0111C040815181AC
:101050000281138148175907E0F04817590799F49E
:10106000109761F012960C93129713961C93329678
:10107000CF01DF91CF911F910F9108950093370217
:1010800010933802F4CF2115310551F04217530760
:1010900038F0A901DB019A01BD01DF01F801C1CFE0
:1010A000EF01F9CF9093380280933702CDCFFE0144
:1010B000E20FF31F819391932250310939832883E2
:1010C000D7CF2091350230913602232B41F4209165
:1010D00002013091030130933602209335022091B2
:1010E0000001309101012115310541F42DB73EB7C2
:1010F0004091040150910501241B350BE09135020C
:10110000F0913602E217F307A0F42E1B3F0B2817CD
:10111000390778F0AC014E5F5F4F2417350748F070
:101120004E0F5F1F50933602409335028193919387
:101130009FCFF0E0E0E09CCFCF93DF930097E9F002
:10114000FC01329713821282A0913702B0913802CB
:10115000ED0130E020E01097A1F420813181820F71
:10116000931F20913502309136022817390709F074
:1011700061C0F0933602E0933502DF91CF9108957C
:10118000EA01CE17DF07E8F54A815B819E01411530
:101190005105B1F7E901FB83EA8349915991C40FE5
:1011A000D51FEC17FD0761F4808191810296840FB1
:1011B000951FE90199838883828193819B838A8328
:1011C000F0E0E0E012968D919C9113970097B9F5AD
:1011D0002D913C911197CD010296820F931F209182
:1011E0003502309136022817390739F6309751F514
:1011F0001092380210923702B0933602A093350253
:10120000BCCFD383C28340815181840F951FC817FF
:10121000D90761F44E5F5F4F88819981480F591F4C
:10122000518340838A819B81938382832115310579
:1012300009F0B0CFF0933802E09337029ECFFD0162
:10124000DC01C0CF13821282D7CFB0E0A0E0EBE286
:10125000F9E00C94C5078C01009751F4CB010E9472
:1012600000088C01C801CDB7DEB7E0E10C94E107BE
:10127000FC01E60FF71F9C0122503109E217F3072A
:1012800008F49DC0D901CD91DC911197C617D707FD
:1012900098F0C530D10530F3CE0104978617970733
:1012A00008F3C61BD70B2297C193D1936D937C9300
:1012B000CF010E949C08D6CF5B01AC1ABD0A4C013D
:1012C0008C0E9D1EA0913702B0913802512C412CFA
:1012D000F12CE12C109731F5809135029091360276
:1012E0008815990509F05CC04616570608F058C0E5
:1012F0008091000190910101009741F48DB79EB754
:101300004091040150910501841B950BE817F907E2
:1013100008F055C0F0933602E0933502F90171836D
:101320006083A0CF8D919C91119712966C9012972B
:1013300013967C901397A815B90559F56C0142E0F6
:10134000C40ED11CCA14DB0420F1AC014A195B099C
:10135000DA011296159780F062827382518340837E
:10136000D9016D937C93E114F10471F0D7011396C8
:10137000FC93EE93129776CF22968C0F9D1FF90166
:1013800091838083F301EFCFF0933802E09337022B
:1013900069CF4816590608F42C017D01D3019ACF74
:1013A000CB010E9400087C01009749F0AE01B80112
:1013B0000E94E209C8010E949C08870153CF10E0F7
:1013C00000E050CFFB01DC0102C001900D924150C2
:1013D0005040D8F70895FB01DC018D9101908019F0
:1013E0000110D9F3990B0895FB01DC0101900D92D6
:0A13F0000020E1F70895F894FFCF04
:1013FA0000003902800000000000FE015E018B013E
:10140A004B02BC019A01AE010D0A002046697265C1
:10141A00207375737065637465642E2E2E002046E2
:10142A0049524520434F4E4649524D454400526F5A
:10143A006F6D203100526F6F6D203200526F6F6DE9
:10144A00203300204E6F726D616C00204649524570
:10145A002041435449564500204669726520636C11
:10146A006561726564002D2D2D2D2D2D2D2D2D2DAF
:0A147A002D2D2D2D2D2D2D2D2D00D3
:00000001FF
